:020000040000FA
:0400000000001D28B7
:08000800FD000308FF000A08D7
:10001000FE000B113D308100A10A28302102031D92
:100020001628A101221C3928302816287E088A00AB
:100030007F088300FD0E7D0E0900831603138601E1
:10004000063081008312031386013D308100A10137
:100050008B178B160130A00086000130A2002F28DC
:100060000310A00D20088600A01F16280230A20051
:1000700016280310A00C20088600201C162801302A
:04008000A20016289C
:00000001FF
