:020000040000FA
:100000000000142983120313861664218612080047
:100010000F39A3000608F03923048600022064216A
:100020000800A500250E83120313061208202508D8
:10003000061208200800A500250E831203130616D9
:1000400008202508082008000030A600A700B100FD
:10005000B2003030B0000A30B4000530A80083167A
:100060000313860183120313722106120330112039
:100070006921023011206421283011201030112014
:1000800001301120063011200D3011200800831698
:1000900003130F308800831203130800013011206E
:1000A0000030A600A700B100B200A4004620053031
:1000B000A80016292B30240203196B282D302402A6
:1000C000031979282F30240203198228783024025A
:1000D00003198B285A2826082707A90091282708E2
:1000E000B5002608A7003508A60027082602A900A3
:1000F0009128270803142602031C6F2827082602CC
:10010000A9009128A901270827080314A602031CA7
:100110009128A90A842803012607A70B8C28A90087
:100120009128340803142902031C97289B283008BF
:1001300029071B205E2934080314A902031CA228E6
:10014000B20A9B283408A9072908B10030083207F1
:100150001B20300831071B205E29B3000430280221
:100160000319B620023028020319B9283308A60063
:1001700008003308A700080039301B20A803093005
:10018000AD20080038301B20A8030830AD2008003F
:1001900037301B20A8030730AD20080036301B2065
:1001A000A8030630AD20080035301B20A803053019
:1001B000AD20080034301B20A8030430AD20080017
:1001C00033301B20A8030330AD20080032301B2041
:1001D000A8030230AD20080031301B20A8030130F5
:1001E000AD20080030301B20A8030030AD200800EF
:1001F0003D301B20A80308002F301B20A8032F3000
:10020000A400080078301B20A8037830A400080060
:100210002B301B20A8032B30A40008002D301B20FE
:10022000A8032D30A4000800242047200430280211
:1002300003193C2902302802031950294030880054
:100240000818BC208818CE200819E020203088002B
:100250000818C2208818D4200819E6208819F2202E
:10026000103088000818C8208818DA200819EC20F7
:1002700088194E287B2116290330280203191629D4
:10028000803088000818FC208818022108190E21E7
:10029000881908211030880088194E287B213C29B4
:1002A0000130280203195A28403088008819F820A4
:1002B0001030880088194E207B215029103088008A
:1002C00088194E2800005E29C830A000A00B6629BE
:1002D0000800E730A0000430A100A00B6D29A10B9D
:1002E0006D2908000F30A0002830A100A00B76294E
:1002F000A10B76290800FE30A000FF30A100A00B62
:080300007F29A10B7F290800F1
:02400E00313F40
:00000001FF
