:020000040000FA
:10000000012883160313860183120313C1309F0056
:10001000831603138E309F0083160313FF30850071
:100020000330880083120313860185018801A6012D
:10003000831203131930A7000230B4200F30B4200C
:100040008030B420831203131F15D1201F192628D6
:10005000831603139E0C1E0883120313A600312877
:10006000492883120313270283120313031C392820
:100070003D28831203130811302883120313081537
:10008000302883120313A70A492883120313A703F6
:1000900049289A200230B4205330C1204930C12071
:1000A0004330C1204130C1204B30C1204C30C120F1
:1000B0004930C1204B30C1203A30C1202508C12031
:1000C0002408C1202308C1202030C120DF30C120F6
:1000D0004330C120CE202708A6009A200230B42049
:1000E0000C30B4202830B420C030B4205230C120AD
:1000F0004530C1204630C1204530C1205230C1209A
:100100004130C1204E30C1205330C1203A30C1208F
:100110002508C1202408C1202308C1202030C12087
:10012000DF30C1204330C120CE2008184128881874
:1001300045282228A501A401A301860126086430D0
:100140002602031CA628A600A50A9F280A3026021C
:10015000031CAD28A600A40AA6282608A300303058
:10016000A504A404A3040800A200220EBA202208B9
:10017000BA2008008F05860006128616D120861246
:100180000800A200220EC7202208C72008008F0501
:10019000860006168616D12086120800FF30A000C1
:1001A000D3280430A0008F30A100A10BD528A00BCC
:0401B000D328080048
:00000001FF
