:020000040000FA
:10000000FF30A300FF30A4008316031306309F00C7
:10001000303085000030860083120313850186018D
:10002000A001A1010130A200051A17281428851A81
:100030002D2803102208A007031822284E2020088C
:1000400086001728851A2D2803102208A1070318F7
:100050000C284E20210885001728051A172803149C
:100060002208A102031C38284E20210885004328BD
:10007000051A172803142208A002031C0C282008C4
:1000800086004E203828051A172803142208A002DB
:10009000031C2D284E20200886004328A30B55283A
:1000A000FF30A300FF30A4000800A40B55284E2801
:02400E00313F40
:00000001FF
