:020000040000FA
:100000004A288316031386011930990083120313BB
:100010009E309800831603131815080083120313EB
:1000200086165820861208000F39A3000608F039FA
:10003000230486000E2058200800A500250E8312F8
:100040000313061214202508061214200800A50028
:10005000250E831203130616142025081420080009
:100060000030A40083160313860183120313662055
:10007000061203301D205D2002301D20582028303C
:100080001D2010301D2001301D2006301D200D3098
:100090001D20080001203020831203138C125820E9
:1000A0008C1E5028831203131A082720582050282A
:1000B000C830A000A00B5A280800E730A000043088
:1000C000A100A00B6128A10B612808000F30A0003F
:0E00D0002830A100A00B6A28A10B6A280800A6
:00000001FF
