:020000040000FA
:0400000000002228B2
:040004000034003490
:08000800FD000308FE000A08D8
:10001000FF000C100B308F00DB308E00A30A023083
:1000200003112302031D1B28A301A00A0A3020028A
:10003000031960201B287F088A007E088300FD0EBC
:100040007D0E09000830A4000330A50083160313B9
:10005000860106309F0085010C14831203130030C3
:10006000A100A0004B208600303090001014A301A6
:100070000B308F00DB308E008B170B1702308500A2
:1000800020084B20860056200130850021084B2097
:10009000860056203E2882073F3406345B344F34B6
:1000A00066346D347D3407347F346F34A40B5D289F
:1000B0000830A4000330A5000800A50B5D285628D1
:1000C000A001A10A06300311210203192228080009
:02400E00313F40
:00000001FF
