:020000040000FA
:100000000A30A3000330A4000030A500A60003308E
:10001000A000A1000130A2008316031306309F0048
:100020000F30850087018601831203138501870144
:100030000730860007140518242885182B28051971
:100040002B2885192B281B280310860DA60AA00A29
:1000500040204A201B28A103A20A260884208600EB
:100060004A20870D20087C2086004A20870CA103A7
:10007000A20A2608842086004A208519542831289F
:10008000A30B4728FF30A300FF30A4000800A40BF7
:1000900047284028A70B51281230A7001A30A80083
:1000A0000800A80B51284A28A103A20A200874209E
:1000B0008600870D20087C2086004A20870D2008B6
:1000C0007C2086004A20870C20087C2086004A205D
:1000D000870C20087C2086004A20851D5928402056
:1000E0004020870D4A205928820700340034043408
:1000F00004340834103420348207003400340034CF
:100100000434083410342034820706340C34183494
:0601100030346034C034FD
:02400E00313F40
:00000001FF
