:020000040000FA
:10000000000002288316031306309F008316031393
:10001000FF3085008701831203130C309700831291
:1000200003139501831203130C309D0083120313F5
:100030009B01831603134130920083120313003097
:10004000A400A50083120313063092005F208312E0
:1000500003130518322085183B2005194420851903
:100060004D20272883120313FF302402031CA40A07
:100070005F2056200800831203132408003C031C51
:10008000A4035F205620080083120313FF302502CB
:10009000031CA50A5F2056200800831203132508BD
:1000A000003C031CA5035F20562008003230A2004C
:1000B0003230A300A30B5A28A20B58280800831241
:1000C00003132408831203130339A100210EF0390E
:1000D0000C38831203139700831203132408A10022
:1000E000A10C210C3F3995008312031325088312BC
:1000F00003130339A600210EF0390C3883120313C1
:100100009D00831203132508A600A60C260C3F3978
:040110009B00080048
:02400E00313F40
:00000001FF
