:020000040000FA
:1000000000003E288312031386166420861208001F
:100010000F39A3000608F03923048600022064206B
:100020000800A500250E83120313061208202508D8
:10003000061208200800A500250E831203130616D9
:1000400008202508082008000030A40083160313A8
:1000500086018312031372200612033011206920D7
:10006000023011206420283011201030112001307E
:100070001120063011200D30112008002420240802
:10008000542003194728A40A1B2064203F28C030AD
:10009000112041301B2059301B2044301B20493097
:1000A0001B204E301B2053288207463441345434E1
:1000B00049344834031500348207463441345434FB
:1000C0004934483403150034C830A000A00B66281A
:1000D0000800E730A0000430A100A00B6D28A10BA0
:1000E0006D2808000F30A0002830A100A00B762852
:0600F000A10B76280800B8
:00000001FF
